:020000023000CC
:10E000000D948AF10D94B3F10D94B3F10D94B3F125
:10E010000D94B3F10D94B3F10D94B3F10D94B3F1EC
:10E020000D94B3F10D94B3F10D94B3F10D94B3F1DC
:10E030000D94B3F10D94B3F10D94B3F10D94B3F1CC
:10E040000D94B3F10D94B3F10D94B3F10D94B3F1BC
:10E050000D94B3F10D94B3F10D94B3F10D94B3F1AC
:10E060000D94B3F10D94B3F10D94B3F10D94B3F19C
:10E070000D94B3F10D94B3F10D94B3F10D94B3F18C
:10E080000D94B3F10D94B3F10D94B3F10D94B3F17C
:10E090000D94B3F10D94B3F10D94B3F10D94B3F16C
:10E0A0000D94B3F10D94B3F10D94B3F10D94B3F15C
:10E0B0000D94B3F10D94B3F10D94B3F10D94B3F14C
:10E0C0000D94B3F10D94B3F10D94B3F10D94B3F13C
:10E0D0000D94B3F10D94B3F10D94B3F10D94B3F12C
:10E0E0000D94B3F12A00593D506F727420626C692F
:10E0F0006E6B00563D73686F7720696E746572723F
:10E1000075707420566563746F727300523D447568
:10E110006D702052414D00513D51756974004C3D68
:10E120004C69737420492F4F20506F7274730048EC
:10E130003D48656C7000463D44756D7020464C410D
:10E14000534800453D44756D7020454550524F4D34
:10E1500000423D426C696E6B204C454400403D4599
:10E160004550524F4D2074657374003F3D435055E8
:10E1700020737461747300303D5A65726F2061645E
:10E18000647200504F5254004545206572722063FE
:10E190006E743D0052656164696E672045450057A5
:10E1A00072697474696E672045450020004D75736F
:10E1B000742062652061206C657474657200506F14
:10E1C0007274206E6F7420737570706F72746564F2
:10E1D000005768617420706F72743A006A6D702025
:10E1E00000726A6D702020006E6F20766563746F18
:10E1F00072005623202020414444522020206F707A
:10E2000020636F64652020202020696E737472750E
:10E210006374696F6E2061646472202020496E749B
:10E220006572727570740031312E322E3000322ECC
:10E23000302E3000446563202031203230323200ED
:10E240004C6F636B20667573652020203D20004570
:10E2500078742066757365202020203D2000486971
:10E26000676820667573652020203D20004C6F771D
:10E270002066757365202020203D200043505520E6
:10E2800049442020202020203D20004743432056A1
:10E29000657273696F6E203D2000415652204C69B3
:10E2A0006243205665723D20005F5F4156525F41D8
:10E2B0005243485F5F3D20004350552054797065BC
:10E2C000202020203D2000436F6D70696C65642024
:10E2D0006F6E203D20004875683F00426F6F746C80
:10E2E0006F616465723E0041726475696E6F20658E
:10E2F00078706C6F7265722073746B353030563283
:10E30000206279204D4C530041546D656761323570
:10E310003630000011241FBECFEFD1E2DEBFCDBFEB
:10E3200001E00CBF12E0A0E0B2E0E6E2F8EF03E0AB
:10E330000BBF02C007900D92A430B107D9F722E0BD
:10E34000A4E0B2E001C01D92A231B207E1F70F9440
:10E35000F1F20D9411FC01E20EBF0FEF0DBF11247D
:10E360001FBE0D94F1F20D9400F08093C6008091D1
:10E37000C00086FFFCCF8091C00080648093C00005
:10E3800008958091C00087FFFCCF8091C60008955A
:10E390009C0190E080E08217930709F40895EFEC68
:10E3A000F7E03197F1F700C000000196F4CF0F932A
:10E3B0001F93CF93DF938C01D62FC8018D0F911D32
:10E3C000092E000CAA0BBB0BABBFFC01C791CC23E1
:10E3D00019F08C2F0F94B5F1DF5FC111EECFDF91F3
:10E3E000CF911F910F9108958DE00F94B5F18AE0C0
:10E3F0000D94B5F1CF93C82F60E083E891EE0F94B0
:10E40000D7F18C2F0F94B5F1CF910D94F4F10F94B7
:10E41000D7F10D94F4F1CF93DF93EC018991882328
:10E4200019F00F94B5F1FACFDF91CF910895CF9302
:10E43000C82F982F92959F7080E3890F8A3310F030
:10E4400087E3890F0F94B5F1CF7080E38C0F8A3387
:10E4500010F087E38C0FCF910D94B5F12F923F927E
:10E460004F925F926F927F928F929F92AF92BF92E4
:10E47000CF92DF92EF92FF920F931F93CF93DF9390
:10E48000CDB7DEB762970FB6F894DEBF0FBECDBF33
:10E49000982E6A017B0180E1882E81E0C816D104A4
:10E4A000E806F10418F08E2D0F9417F28D2D0F94BD
:10E4B00017F20C2D8C2D0F9417F280E20F94B5F10A
:10E4C0008DE20F94B5F180E20F94B5F11982FE014F
:10E4D00031965F01260137011F01005FF1E09F16B1
:10E4E00009F443C082E0981609F444C06BBEF201FF
:10E4F0001791812F0F9417F280E20F94B5F180EEFF
:10E50000810F8F3508F01EE2F50111935F01FFEFD7
:10E510004F1A5F0A6F0A7F0A0411E0CF80E1C80E2C
:10E52000D11CE11CF11C198AC1010F940BF20F944C
:10E53000F4F18A948110B1CF62960FB6F894DEBFE1
:10E540000FBECDBFDF91CF911F910F91FF90EF9044
:10E55000DF90CF90BF90AF909F908F907F906F9003
:10E560005F904F903F902F900895C2010F94FBFB56
:10E57000182FBFCFF2011081BCCF0F931F93CF9301
:10E58000DF93EC018B01853691051CF46330710536
:10E590004CF0CE0164E670E00F94AAFB80E3860F96
:10E5A0000F94B5F1CB30D1051CF4023011056CF09D
:10E5B000CE0164E670E00F94AAFB6AE070E00F946D
:10E5C000AAFB80E3860F0F94B5F1CE016AE070E0FC
:10E5D0000F94AAFB805DDF91CF911F910F910D9455
:10E5E000B5F1CDB7DEB7C953D1400FB6F894DEBF51
:10E5F0000FBECDBF01E20EBF0FEF0DBF94B7F89471
:10E60000A89514BE8091600088618093600010928C
:10E610006000789493FF05C0E0911002F091110220
:10E620001995279A2F9A8091C00082608093C0002C
:10E6300080E18093C40088E18093C100000010E075
:10E6400000E0C12CD12C760137EC832E3BE1932ED8
:10E65000A12CB12C8091C00087FD39C0012BA1F005
:10E6600027982F9884E690E00F94C8F100008091DD
:10E67000C0008D7F8093C00081E180935700E895B2
:10E68000EE27FF270994FFCF25E02A95F1F7000038
:10E690003FEFC31AD30AE30AF30A81E041E2C4164A
:10E6A0004EE4D406E104F10408F480E0082F10E001
:10E6B000C701B601A50194010F94BEFB672B682B1F
:10E6C000692B09F0C7CF85B1805885B9C3CF012B1D
:10E6D00009F0C6CFC35DDE4F19821882CD52D140FA
:10E6E000312C212CCC5DDE4F19821882C452D140CE
:10E6F000CA5DDE4F188219821A821B82C652D1402F
:10E70000412C512C320141E050E0C65DDE4F1882B1
:10E71000CA52D140D12CFE013196C25EDE4FF98340
:10E72000E883CE51D140C25EDE4FF881CE51D14058
:10E73000C85CDE4FF883C853D140C15EDE4F2881EC
:10E74000CF51D140C75CDE4F2883C953D14030E060
:10E7500020E080E04FC5415051096109710971F411
:10E760006BBFFA01479156914F3F5F4F19F0EE276B
:10E77000FF27099441E052E16AE770E09091C00000
:10E7800097FFE9CF3BC5123409F4F4C1153409F001
:10E7900073C162E083E491EE0F9407F240910402AA
:10E7A00050910502609106027091070281E00F947A
:10E7B0002EF28091040290910502A0910602B09180
:10E7C00007029F5FAF4FBF4F8115E0E19E07A10594
:10E7D000B10508F09EC08093040290930502A093B7
:10E7E0000602B093070226C1123509F445C208F0AB
:10E7F00049C01C3409F4FBC1113509F41FC2183497
:10E8000009F03AC162E08FE291EE0F9407F260E006
:10E8100087E791EE0F9407F260E08BE691EE0F949C
:10E8200007F260E08DE591EE0F9407F260E081E57C
:10E8300091EE0F9407F260E083E491EE0F9407F2FB
:10E8400060E086E391EE0F9407F260E08FE291EED4
:10E850000F9407F260E08EE191EE0F9407F260E012
:10E8600087E191EE0F9407F260E08CE091EE0F9457
:10E8700007F260E083EF90EE0F9407F260E086EE1F
:10E8800090EE02C5163509F41BC2193509F0F4C023
:10E8900062E086EE90EE0F9407F260E081ED91EE7B
:10E8A0000F94D7F10F94C1F1182F1F75812F0F947A
:10E8B000B5F10F94F4F18FEB810F8A3108F084C425
:10E8C000163409F425C408F0B7C3133409F4F8C3A7
:10E8D00008F0A4C3113409F4D3C3123409F4E0C31B
:10E8E00060E08EEB91EED0C462E087E791EE0F948A
:10E8F00007F2109208021092090210920A02109276
:10E900000B0210920C0210920D0210920E02109245
:10E910000F02109204021092050210920602109249
:10E92000070288C062E08BE691EE0F9407F260E088
:10E9300087EE92EE0F9407F260E087EC92EE0F9470
:10E94000D7F160E084E392EE0F9407F260E088EB89
:10E9500092EE0F94D7F160E088E093EE0F9407F207
:10E9600060E089EA92EE0F94D7F186E30F94B5F157
:10E970000F94F4F160E08BE892EE0F94D7F160E031
:10E9800087E292EE0F9407F260E08AE992EE0F942C
:10E99000D7F160E08EE292EE0F9407F260E08CE730
:10E9A00092EE0F94D7F18EE10F9417F288E90F944D
:10E9B00017F281E00F9417F20F94F4F160E08DE606
:10E9C00092EE0F94D7F129E0F0E0E0E020935700B9
:10E9D00084910F9417F20F94F4F160E08EE592EEBB
:10E9E0000F94D7F129E0E3E0F0E020935700849101
:10E9F0000F9417F20F94F4F160E08FE492EE0F940D
:10EA0000D7F1E2E0F0E039E03093570084910F94C1
:10EA100017F20F94F4F160E080E492EE0F94D7F1D6
:10EA2000E1E0F0E049E04093570084910F9417F241
:10EA30000F94F4F160E08BED92EE0F94D7F10F9408
:10EA4000C1F1182F803608F01F751032A8F0812F01
:10EA50000F94B5F180E20F94B5F1163409F4A3C018
:10EA600008F0C2CE103461F008F08DCE103309F4F6
:10EA70003BCF1F3309F456CF60E086ED92EE04C41D
:10EA800062E08DE591EE0F9407F260E08FE991EE80
:10EA90000F9407F20F94F4F110E000E0C8018951DF
:10EAA0009D41092E000CAA0BBB0BABBFFC01F790DC
:10EAB0005AE2F51621F0011562E0160799F50F9458
:10EAC000F4F10F94F4F160E084E991EE0F9407F211
:10EAD0000F94F4F1F12CE12C10E000E0C801895111
:10EAE0009D41092E000CAA0BBB0BABBFFC01D790BC
:10EAF0008AE2D81621F0011592E0190729F50F9442
:10EB0000F4F10F94F4F160E088E891EE0F94D7F1FE
:10EB100061E070E0C7010F94BDF20F94F4F10F941F
:10EB2000F4F1F7CE6F2DC8010F9403FCF11008C06B
:10EB300060E08BEA91EE0F94D7F10F5F1F4FAECFDD
:10EB40008F2D0F94B5F1F9CFC8010F94FBFBC82EA0
:10EB500081110DC060E08BEA91EE0F94D7F1CD14D6
:10EB600019F07FEFE71AF70A0F5F1F4FB7CF0F9427
:10EB7000B5F1F5CF62E081E591EE0F9407F2279AA7
:10EB80002F9A8091C00087FF03C00F94C1F152CF2C
:10EB90002F9884E690E00F94C8F12F9A84E690E0D5
:10EBA0000F94C8F1EECF62E086E391EE0F9407F286
:10EBB000409108025091090260910A0270910B0283
:10EBC00080E00F942EF28091080290910902A091AA
:10EBD0000A02B0910B029F5FAF4FBF4F80930802B4
:10EBE00090930902A0930A02B0930B0223CF62E034
:10EBF0008EE191EE0F9407F281E40F94FAF182E432
:10EC00000F94FAF183E40F94FAF184E40F94FAF18B
:10EC100085E40F94FAF186E40F94FAF187E40F94F7
:10EC2000FAF188E40F94FAF18AE40F94FAF18BE494
:10EC30000F94FAF18CE40F94FAF1FCCE62E087E1D4
:10EC400091EE0F9407F2CC24C3942981243109F466
:10EC500022C508F088C3263009F4CCC408F073C379
:10EC6000223009F47CC3233009F479C4213009F43B
:10EC700060C480EC8A8374C362E08CE091EE0F94F0
:10EC800007F240910C0250910D0260910E027091BA
:10EC90000F0282E00F942EF280910C0290910D02EF
:10ECA000A0910E02B0910F029F5FAF4FBF4F8093B4
:10ECB0000C0290930D02A0930E02B0930F02BACEF5
:10ECC00062E083EF90EE0F9407F260E088E093EE4D
:10ECD0000F9407F260E082EF91EE0F9407F2C55DAA
:10ECE000DE4F19821882CB52D140C05EDE4F1882AF
:10ECF00019821A821B82C052D140C05EDE4F288129
:10ED000039814A815B81C052D140569547953795EC
:10ED10002795C15DDE4F288339834A835B83CF52B9
:10ED2000D140C55DDE4F48815981CB52D1404F5F04
:10ED30005F4FC55DDE4F59834883CB52D14062E0BF
:10ED400070E0CA010F94BDF280E20F94B5F18DE23C
:10ED50000F94B5F180E20F94B5F180E00F9417F2B3
:10ED6000C15DDE4F8881CF52D1400F9417F280E20F
:10ED70000F94B5F18DE30F94B5F180E20F94B5F1E6
:10ED8000C05EDE4F688179818A819B81C052D1400B
:10ED90008BBFFB017791C95CDE4F7883C753D140AD
:10EDA000872E912CB12CA12CC05EDE4F88819981D9
:10EDB000AA81BB81C052D1400196A11DB11DABBF3C
:10EDC000FC018791282F30E050E040E0CD5CDE4F21
:10EDD000288339834A835B83C353D140C05EDE4FAF
:10EDE000088119812A813B81C052D1400E5F1F4F9B
:10EDF0002F4F3F4F2BBFF8010791C05EDE4F488178
:10EE000059816A817B81C052D1404D5F5F4F6F4F06
:10EE10007F4F6BBFFA011791C05EDE4F4881598169
:10EE20006A817B81C052D1404C5F5F4F6F4F7F4FF3
:10EE3000C05EDE4F488359836A837B83C052D140D2
:10EE4000CD5CDE4F288139814A815B81C353D1403B
:10EE5000CC24D22EE32EF42EC80CD91CEA1CFB1CA9
:10EE60000F9417F280E20F94B5F1C95CDE4F8881F0
:10EE7000C753D1400F9417F280E20F94B5F1812F60
:10EE80000F9417F280E20F94B5F1802F0F9417F2D0
:10EE900080E20F94B5F13FEFC316D306E104F1040D
:10EEA00091F460E088EE91EE0F94D7F10F94F4F1B5
:10EEB000C55DDE4F28813981CB52D14029333105E0
:10EEC00009F01BCFB7CDD701C6018827907CAA27B0
:10EED000BB278115904CA105B10579F55FE3D522DB
:10EEE000EE24FF24C15DDE4F88809980AA80BB801C
:10EEF000CF52D1408C0C9D1CAE1CBF1C880C991CA1
:10EF0000AA1CBB1C60E081EE91EE0F94D7F18D2D11
:10EF10000F9417F28C2D0F9417F280E20F94B5F135
:10EF20008EE30F94B5F180E00F9417F2892D0F94C2
:10EF300017F2882D0F9417F2B9CF6EE0C622E8942D
:10EF4000D0F8EE24FF247CE0C71674E9D706E1046C
:10EF5000F10409F0ABCF812F90E0B0E0A0E0BA2F30
:10EF6000A92F982F8827800F911DA11DB11DCD5C61
:10EF7000DE4F488159816A817B81C353D14035E19D
:10EF8000440F551F661F771F3A95D1F74427552721
:10EF900060727727480F591F6A1F7B1FD40199277A
:10EFA000882788279927A170BB27F1E1880C991C35
:10EFB000AA1CBB1CFA95D1F788249924E0EEAE2256
:10EFC000E1E0BE2288299929AA29BB294A015B01CF
:10EFD000880E991EAA1EBB1E75016401CC0CDD1C97
:10EFE000EE1CFF1C60E08CED91EE0F94D7F18A2DA2
:10EFF0000F9417F2892D0F9417F2882D0F9417F2A2
:10F0000080E20F94B5F18EE30F94B5F18E2D0F943D
:10F0100017F28D2D0F9417F28C2D8CCF143409F428
:10F020005FC0153409F05CCC7FEF7DB98091C000E2
:10F0300087FF66C01EB8A9CD1A3409F493C080F4C6
:10F04000173409F475C0183409F04ACCAFEFA09317
:10F0500001018091C00087FF7BC01092020195CD15
:10F060001B3409F493C01C3409F03ACCFFEFF09341
:10F070000A018091C00087FF9DC010920B0185CDD1
:10F080003FEF31B98091C00087FF02C012B87DCD3B
:10F0900082B1809582B988EC90E00F94C8F1F2CFEC
:10F0A0004FEF44B98091C00087FF02C015B86DCD05
:10F0B00085B1809585B988EC90E00F94C8F1F2CFC6
:10F0C0005FEF57B98091C00087FF02C018B85DCDCF
:10F0D00088B1809588B988EC90E00F94C8F1F2CFA0
:10F0E0006FEF6AB98091C00087FF02C01BB84DCD99
:10F0F0008BB180958BB988EC90E00F94C8F1F2CF7A
:10F100008EB180958EB988EC90E00F94C8F18ECFC7
:10F110008FEF80BB8091C00087FF02C011BA35CD50
:10F1200081B3809581BB88EC90E00F94C8F1F2CF59
:10F130009FEF93BB8091C00087FF02C014BA25CD1A
:10F1400084B3809584BB88EC90E00F94C8F1F2CF33
:10F150008091020180958093020188EC90E00F94E9
:10F16000C8F177CFBFEFB09304018091C00087FF53
:10F1700003C01092050109CD80910501809580930F
:10F18000050188EC90E00F94C8F1EFCFEFEFE0932A
:10F1900007018091C00087FF03C010920801F5CCE1
:10F1A0008091080180958093080188EC90E00F948D
:10F1B000C8F1EFCF80910B01809580930B0188EC13
:10F1C00090E00F94C8F155CF60E08DEA91EE5CC0FD
:10F1D000312C212C833009F47CC008F058C08130D8
:10F1E00009F468C0823009F46DC0882309F45BC05B
:10F1F00040E050E04130510509F0BCCA9091C60092
:10F20000C35DDE4FA881B981CD52D1401196C35D57
:10F21000DE4FB983A883CD52D1409132C9F61A97F7
:10F22000B8F6BFEF2B1A3B0AE3E02E16310491F635
:10F2300025E0222E312C09E110E081E20F94B5F196
:10F2400001501109D1F70F94F4F1F1E02F1A3108B0
:10F2500091F710920C0210920D0210920E02109271
:10F260000F02109208021092090210920A021092E4
:10F270000B021092040210920502109206021092E4
:10F28000070260E087EE92EE0F9407F2D3CB853051
:10F2900099F1863009F452C08430F9F0873009F0D2
:10F2A000A7CFC12CD2CC9B3109F0A2CF8BE1D82EB5
:10F2B00081E09ECFD926C65DDE4F9883CA52D140E9
:10F2C00082E096CF292F30E0322F2227D92683E003
:10F2D0008FCF292BD92684E08BCF9E3091F5D9266C
:10F2E000CC5DDE4F1882C452D140CB5DDE4F188218
:10F2F000C552D14085E07CCFCC5DDE4F488159813D
:10F30000C452D1404F5F5F4FE1E0F0E0EC0FFD1FD2
:10F31000CC5DDE4F68817981C452D140E60FF71F82
:10F320009083D9264217530709F00DC2CC5DDE4FFA
:10F3300039832883C452D14086E05ACF9D1509F401
:10F34000B0CF80E055CF223109F447C12331C9F055
:10F35000203129F0213109F08CCCCC24C3941A82BD
:10F3600002E010E088C0293109F428C108F05BC030
:10F37000263109F490C1283109F40BC1253109F077
:10F3800078CC8A819B81982789279827233109F097
:10F390005AC1CA5DDE4F488159816A817B81C6525C
:10F3A000D1404115A0EE5A07A3E06A077105E8F4C1
:10F3B00023E0FA0160935B0020935700E89507B6BD
:10F3C00000FCFDCFCA5DDE4F288139814A815B8117
:10F3D000C652D1403F5F4F4F5F4FCA5DDE4F28831B
:10F3E00039834A835B83C652D1402B85DE01119657
:10F3F000B301A20111E01B963C911B970901FA0190
:10F4000060935B0010935700E89511244E5F5F4FA7
:10F410006F4F7F4F02971296009709F402C11A9618
:10F420002C911A97E8CF2B3109F4A7C02D3179F030
:10F430002A3109F01ECC1A8289E0E1E0F0E08093E5
:10F44000570084918B831C8204E010E014C09D81DE
:10F45000903309F056C08F81882309F466C081304B
:10F4600009F465C081E01A821B829C831D828E8311
:10F470001F8207E010E08BE10F94B5F1C65DDE4F0F
:10F480008881CA52D1400F94B5F1812F0F94B5F104
:10F49000C65DDE4FD880CA52D140D126802F0F944E
:10F4A000B5F1D0268EE00F94B5F185E1D82661E064
:10F4B00070E06C0F7D1F060F171FC85CDE4FE880E1
:10F4C000C853D140C75CDE4FF880C953D1400E15F8
:10F4D0001F0509F030C18D2D0F94B5F1C65DDE4FCB
:10F4E000B881CA52D140BF5FC65DDE4FB883CA52F1
:10F4F000D14085B1805885B9C110B2C850E040E014
:10F5000026C9892F807509F4AECF89E0F0E0E0E0EC
:10F51000903539F080E0983509F0A5CF89E0E3E037
:10F52000F0E08093570084919ECF8EE19CCF88E9D4
:10F530009ACF1A8288E08B8381E48C8386E58D8361
:10F5400082E58E8389E48F8383E5888780E58987D8
:10F550008FE58A8782E38B870BE010E08CCFEA810E
:10F56000E05980E0E33020F4F0E0E050FE4F80818D
:10F570001A828B8303E010E07ECF8D81882329F0EF
:10F58000813029F081E01A825DCF8EE1FCCF88E9DD
:10F59000FACF8B81803571F48C81883039F489E021
:10F5A000E2E0F0E0809357008491EDCF89E0F0E055
:10F5B000E0E0F8CF89E0E3E0F0E0F4CF8D81836C08
:10F5C00099E0E1E0F0E0082E90935700E89507B647
:10F5D00000FCFDCF1A821B82CDCF80EC8A8302E033
:10F5E00010E0CA5DDE4F188219821A821B82C65251
:10F5F000D14041CF2A813B814C815D81C05EDE4F8D
:10F60000288339834A835B83C052D140CA01B90140
:10F610000F94E0FB2B013C01440C551C661C771C2D
:10F620009ECE35E0F20160925B0030935700E89582
:10F6300007B600FCFDCF81E180935700E8951A8260
:10F640002A013B018DCEFE0131969C012E0F3F1FFA
:10F65000B301A20141BD852E962EA72EBB2482BCEC
:10F660004F5F5F4F6F4F7F4FA285A0BDFA9AF99A07
:10F67000F999FECF31962E173F0761F70197B0E059
:10F68000A0E00196A11DB11DAC01BD01440D551DA9
:10F69000661D771DD4CF8A819B819827892798275B
:10F6A0008C010D5F1F4F1A822431C9F4DE011196BF
:10F6B0006BBEF2012791369112962C931297FD01A1
:10F6C000349613963C93139742E0440E511C611CF0
:10F6D000711C02971296009759F71082CCCEFE014A
:10F6E00031969F01280F391FB301A20141BD852E1C
:10F6F000962EA72EBB2482BC4F5F5F4F6F4F7F4F6C
:10F70000F89AA0B5A2833196E217F30779F7AC0116
:10F710004150510970E060E04F5F5F4F6F4F7F4F86
:10F72000440E551E661E771EE3E0F0E0EC0FFD1F51
:10F73000E80FF91FD2CFD701BD907D018B2D0F941B
:10F74000B5F1DB24C4CECC5DDE4F59834883C4526F
:10F75000D1404ECD97FB072E16F4009407D077FDCD
:10F7600009D00F94E7FB07FC05D03EF490958195F6
:10F770009F4F0895709561957F4F0895A1E21A2ECD
:10F78000AA1BBB1BFD010DC0AA1FBB1FEE1FFF1F45
:10F79000A217B307E407F50720F0A21BB30BE40B95
:10F7A000F50B661F771F881F991F1A9469F76095DC
:10F7B0007095809590959B01AC01BD01CF01089596
:10F7C0006927962769277827872778270895AA1B0E
:10F7D000BB1B51E107C0AA1FBB1FA617B70710F03C
:10F7E000A61BB70B881F991F5A95A9F7809590956E
:10F7F000BC01CD010895F999FECF92BD81BDF89A63
:10F80000992780B50895262FF999FECF1FBA92BD8A
:10F8100081BD20BD0FB6F894FA9AF99A0FBE0196F1
:06F820000895F894FFCFEB
:04F826000F020A00C3
:040000033000E000E9
:00000001FF
